:02000000F72BDC
:10067A0083128516A630A000A00B412B000083121E
:10068A00851208000730831299000C3083169F00E8
:10069A00013083129F0015308316850001309500C2
:1006AA00811383128501080083128512A630A000E7
:1006BA00A00B5D2B000083128516C730A000652BA6
:1006CA00A00B642B682B692B8312851208008312F6
:1006DA008512C730A000712BA00B702B742B752BC1
:1006EA0083128516A630A000A00B792B0000831276
:1006FA00851208008312A1002108A000013003100E
:10070A00A00DFF3E031D842B0310200D01389F000E
:10071A001030A000A00B8F2B000083129F149F188B
:10072A00972B982B942B1E0808008312A0010430E3
:10073A00A2002208263E840083130008A10001308B
:10074A00A1052208263E84000310800C2008031904
:10075A00AF2BB02BB42B2208263E84008017210829
:10076A00A000FF30A207A21FBB2BBC2B9E2B0800A8
:10077A0047238312A6015730AA002A08A607023087
:10078A007F238312A9002908A60703307F23831237
:10079A00A8002808A6070310051C03140030031834
:1007AA000130A7002708A6073D238312A501261CAE
:1007BA00DF2BE02BE22B6C23E32B59239A23013006
:1007CA008312A50728302502031CEC2BED2BDC2B0A
:1007DA000830A4002330A300A30BF12BA40BF12BA8
:1007EA00BE2B00288312A601A701A801A901AA010C
:0407FA008301BD2B8F
:02400E00C431BB
:00000001FF
