:02000000F62BDD
:1004C200FF34FF348312A0002008AA3A0800133038
:1004D20083169F00013083129F000800423083126E
:1004E200A000A00B722A00000800831205116F22DF
:1004F200831205156F220800831205156F228312DD
:1005020005116F2208008312A3009422A522553000
:10051200B62283122308B622831223086322B6224C
:100522008312051108008312A10105156F2283129F
:1005320005116F2201308312A10714302102031C1E
:10054200A32AA42A962A0800831205159F30A00028
:10055200AA2AA00BA92AAD2AAE2A8312051142307B
:10056200A000A00BB22A000008008312A100A20181
:10057200211CBC2ABD2ABF2A7D22C02A7622031052
:100582008312A10C0130A20708302202031CCA2ADE
:10059200CB2AB92A08008312A100F3309F05210853
:1005A200A00001300310A00DFF3E031DD32A03104B
:1005B200200D9F040630A000A00BDD2A000083124C
:1005C2009F149F18E52AE62AE22A1E0808008312D1
:1005D200051AEC2AED2A1C2B1A30A500F830A400CB
:1005E200A40BF12AA50BF12A00008312051AFA2A9C
:1005F200FB2A1C2B2C080319FF2A012B0130022B8A
:100602000030AC00A6010630842207308312A50018
:100612007D30A400A40B0B2BA50B0B2B01308312F6
:10062200A60705302602031C172B182B042B051EC8
:100632001B2B1C2B182B08008312A501A11F222B98
:10064200232B2A2BA009A109A00A0319A10A013010
:10065200A500A31F2D2B2E2B352BA209A309A20A1D
:100662000319A30A0130A506A601A7012008210447
:1006720003193C2B3D2B722B0130A400492B013076
:100682000310A00DA10DFF3E031D412B0130A40755
:10069200A11F4C2B4D2B402B01300310A60DA70D93
:1006A200FF3E031D4E2B21082302031D5A2B200857
:1006B2002202031C5D2B5E2B652B2008A20221085F
:1006C200031CA303A302261401300310A10CA00CE7
:1006D200FF3E031D662B0130A402031D712B722BFA
:1006E2004D2B25080319762B772B7C2BA609A709FE
:1006F200A60A0319A70A2708A1002608A0000800D5
:1007020083167F08900007308312990013308316F6
:100712008500831285018316811315166822E8224B
:1007220083122C08031D962B972BEA2B0030CC2228
:100732008312AE000130CC228312AD001930A0002A
:100742000030A1002E08A800A9012808A20029084B
:10075200A3001D23831220080A3EAA001930A0001C
:100762000030A1002D08A800A9012808A20029082C
:10077200A3001D23831220080A3EAB002A0830067C
:100782000319C42BC52BD42B2A08B0002A08103E0B
:1007920084220D308312A900FB30A800A80BCF2BB6
:1007A200A90BCF2BD42B83122B082F060319DA2B7C
:1007B200DB2BEA2B2B08AF002B08203E84220D30C6
:1007C2008312A900FB30A800A80BE52BA90BE52B8F
:1007D200EA2B1A308312A900F830A800A80BEF2BDD
:1007E200A90BEF2B0000902B00286122AF006222A0
:0C07F200B000AC01AD01AE018301812B11
:02400E009431EB
:00000001FF
