:020000000B28CB
:10000800DE00030E8312AC000A08AD007A280C2823
:100018008313203084002C30FD2083011328D9203D
:1000280010308312B200B20B172800008312851D0E
:100038001E281F282D282B19222823282D28AB14E9
:100048000130A907031D29282A2872280130A9028E
:100058007228AB18302831283A280130A807031D28
:100068003628372872280130A80272281F30280243
:10007800031C3F28402843282830B5007128280849
:100088002902031C48284A2801304B280030B42094
:1000980001308312B502031D5228532871282830D5
:1000A800B50022082107B20023083207B30024084C
:1000B8003307B40020083406031D63286428712818
:1000C80057302406031D69286A2871282309A700C8
:1000D8002309A6002108A5002B15052183122B1D35
:1000E8007628772814282B1114280B280C1C7D2817
:1000F8007E289128D8308F00F0308E002A14AB115A
:100108002B18872888288B2805152B148D28051669
:100118002B10403081008B160C100B1D942895284D
:10012800AD282A1898289928AB28AB1D9C289D280B
:10013800A128051105128B12AB28AB152B1CA5287D
:10014800A628A92827088100AB28260881002A109C
:100158000B112D088A002C0E8300DE0E5E0E09009E
:100168008312AE002E08AF000430B1003108203EE3
:10017800840083130008B0000130B0053108203E28
:1001880084000310800C2F080319CB28CC28D02812
:100198003108203E840080173008AF00FF30B107D7
:1001A800B11FD728D828BA28080007308312990029
:1001B80008308316850001308100013083129000D9
:1001C800D8308F00F0308E0085012830B500A901A5
:1001D800A8012B10AB102B11AB112A103F30A70030
:1001E8003F30A6000B110C1083160C140B178B173D
:1001F800080064008001840A040603190034040618
:0C020800FE288312A801A901AB10080019
:02400E00C431BB
:00000001FF
