:020000000A28CC
:10000800FE00030EF2000A08F30021290B286121E3
:10001800A0006221A1006321A2006421A300A8011D
:10002800A901F601F701F801F90183011B2807303E
:10003800831203139F008501860102308316031380
:100048008600372147210B178B170F30F4000F302C
:10005800542179080319312832286D287908831228
:100068000313A700F9011A302702031C3C283D2876
:1000780047282530270203184228432847282708FD
:10008800F03EA3006D282A302702031C4C284D2877
:10009800572835302702031852285328572827088D
:1000A800E03EA2006D2806302706031D5C285D2867
:1000B8006D282808031D612862286D28780803190F
:1000C80066286828013069280030F800A901013045
:1000D800A800831203132808031973287428862894
:1000E800023083120313A6008630A5009830A400BE
:1000F800A40B7C28A50B7C28A60B7C2883288312BC
:100108000313A801780803198A288B28DB28D0282C
:100118001430F4000A305421043083120313A6006B
:100128008E30A5001230A400A40B9828A50B98289F
:10013800A60B9828013083120313A9002D280F302D
:10014800F4000F305421043083120313A6008E30BC
:10015800A5001230A400A40BAF28A50BAF28A60B4E
:10016800AF28023083120313A9002D280A30F400A7
:1001780014305421043083120313A6008E30A500D6
:100188001230A400A40BC628A50BC628A60BC628A7
:1001980083120313A9012D282908003A03198C2872
:1001A800013A0319A328033A0319BA282D2822086B
:1001B800F400230854211A3083120313A500F830E1
:1001C800A400A40BE528A50BE5282D280A28FF3054
:1001D800831203138F009C308E000130F60703183A
:1001E800F70A0030F70700307702C83003197602A3
:1001F800031CFF2800290429F601F70186150616B5
:100208002108F000F10171087702031D0D2970081B
:100218007602031C10291129122986112008F000E2
:10022800F10171087702031D1B2970087602031C6F
:100238001E291F29202906120800831203138C1E69
:100248002629272928295C21831203130C1C2D2910
:100258002E2930290C10EB2073088A00720E8300B7
:10026800FE0E7E0E09003330831603139900181111
:1002780018128312031398171816181383160313EA
:1002880098128C1608000130831203139000FF3077
:100298008F009C308E000C10831603130C1408007A
:1002A800F500750883120313A1007408A000080064
:1002B800831203131A08F90008000F340F340F349F
:0202C8000F34F1
:02400E00103F61
:00000001FF
