:100000000C9434000C943E000C943E000C943E0082
:100010000C943E000C943E000C943E000C943E0068
:100020000C943E000C943E000C943E000C943E0058
:100030000C943E000C943E000C943E000C943E0048
:100040000C943E000C943E000C943E000C943E0038
:100050000C943E000C943E000C943E000C943E0028
:100060000C943E000C943E0011241FBECFEFD8E04C
:10007000DEBFCDBF0E9440000C946B000C940000CA
:1000800084B1816084B984B1826084B985B18E7F86
:1000900085B985B18D7F85B985B1816085B985B117
:1000A0008D7F85B92FEF83ED90E321508040904004
:1000B000E1F700C0000085B1826085B985B18E7F0F
:1000C00085B92FEF83ED90E3215080409040E1F718
:0A00D00000C00000E1CFF894FFCF5C
:00000001FF
