:020000000A28CC
:10000800FE00030EF0000A08F100A6280B28422281
:10001800BA004322BB004422BC004522BD00462250
:10002800BE004722BF004822C0004922C1008313F6
:10003800203084002E304A22FA01FB018301522A23
:100048008312031305080139AE00050C0139AF000E
:10005800050CF200720C0139B000060CF200720CAB
:100068000139B100060CF200F20C720C0139B20031
:100078000608F20004300310F20CFF3E031D3F286F
:100088007208B3000F30B3051A30F300F830F200ED
:10009800F20B4C28F30B4C280000831203130508BD
:1000A8000139B400050C0139B500050CF200720CD9
:1000B8000139B600060CF200720C0139B700060CC3
:1000C800F200F20C720C0139B8000608F200043094
:1000D8000310F20CFF3E031D6C287208B9000F30A4
:1000E800B9052E083406031D7A287B287D28340894
:1000F800AD002F083506031D82288328852835087A
:10010800AC0030083606031D8A288B288D2836084F
:10011800AB0031083706031D922893289528370825
:10012800AA0032083806031D9A289B289D283808FB
:10013800A90033083906031DA228A328A5283908D1
:10014800A80008000B1DA928AA28FD280B110630B5
:100158008312031381007B080319B328B428D52818
:100168000130A407003003180130A5070030031838
:100178000130A607003003180130A70741082702FD
:10018800031DD02840082602031DD0283F08250259
:10019800031DD0283E082402031CD328D428D528C0
:1001A80027227A080319D928DA28FD280130831272
:1001B8000313A007003003180130A107003003180B
:1001C8000130A207003003180130A3073D082302BD
:1001D800031DF8283C082202031DF8283B082102C9
:1001E800031DF8283A082002031CFB28FC28FD28D8
:1001F800352271088A00700E8300FE0E7E0E0900FB
:10020800831203132D0803190A290B2912292C0814
:1002180003190F2910291229192252292D08031907
:100228001629172924292C08031D1B291C292429D0
:100238002A080319202921292229102903225229B1
:100248002C0803192829292936292D08031D2D29A9
:100258002E29362929080319322933293429102946
:10026800EC2152297B03031D3A293B2944292A08FA
:1002780003193F294029412910298515861052293B
:1002880002307B06031D49294A2910292908031928
:100298004E294F2950291029851186140800F60087
:1002A80079290030F5000030F4007530F300303063
:1002B800F20087290030F5000030F400EA30F3003E
:1002C8006030F20087290030F5000130F4005F301B
:1002D800F3009030F20087290030F5000130F40077
:1002E800D430F300C030F20087297608003A0319A9
:1002F8005529013A03195E29033A03196729013A76
:100308000319702955290800831203132808F800D7
:100318000330F8052808F70002300310F70CFF3EF9
:10032800031D91297708F9000330F905780853214E
:10033800750883120313C1007408C0007308BF0056
:100348007208BE0079085321750883120313BD0093
:100358007408BC007308BB007208BA000800831256
:1003680003132B080319B929BA29CA297A08031DC6
:10037800BE29BF29CA290030A3000030A2000030DE
:10038800A1000030A0000130FA0006147A08031911
:10039800CE29CF29D1290614D22906100800073002
:1003A800831203139F000730831603138500FC3064
:1003B8008600831203138501860101308316031317
:1003C800810006308312031381008B168B170800F7
:1003D80002307B060319F129F229FE290030831225
:1003E8000313A7000030A6000030A5000030A400C9
:1003F8000230FB00831203138511861408007B0367
:100408000319072A082A142A003083120313A700A5
:100418000030A6000030A5000030A4000130FB0029
:1004280083120313851586100800831203138511A0
:1004380086100030A7000030A6000030A50000306C
:10044800A400FB01080083120313851186100030F5
:10045800A7000030A6000030A5000030A400FB0172
:1004680008008312031306100030A3000030A20016
:100478000030A1000030A000FA01080030347534C3
:1004880000340034303475340034003464008001A2
:10049800840A04060319003404064B2AD3212420B5
:0A04A80088210421B321532A0A28F9
:02400E00383F39
:00000001FF
